:100000003FC063C156C055C054C053C052C051C058
:1000100050C04FC04EC04DC04CC04BC04AC049C07C
:1000200048C047C046C009021200010100C0C8090B
:10003000040000000000000012011001FF00000891
:10004000C016DC05000101020001180350006F001A
:100050007700650072005300770069007400630048
:1000600068001A037700770077002E006F006200A7
:100070006400650076002E0061007400040309042A
:1000800011241FBECFEDCDBF10E0A0E6B0E0E0EC44
:10009000F5E002C005900D92A236B107D9F710E045
:1000A000A2E6B0E001C01D92A039B107E1F759D234
:1000B00085C2A6CFCF93DF9380917500835087FDD3
:1000C0008DC090917200209171002D3209F084C092
:1000D000883009F081C0CCE0D0E0C91BD109C758F5
:1000E000DF4F83EC809365008AE580936000109277
:1000F00062002881822F807619F0CE01FAD163C088
:100100009A8110926E00898181110BC02F7119F4B0
:1001100081E080936E0010926F002EE630E082E066
:100120004EC0853019F4909376003DC08630A9F515
:100130008B81813019F488E390E004C0823041F46F
:1001400086E290E0909374008093730082E121C076
:100150008330F1F4911108C08CE790E09093740023
:100160008093730084E015C0913041F482E690E002
:1001700090937400809373008AE10BC0923041F435
:100180008AE490E0909374008093730088E101C04A
:1001900080E090E49093620016C0883069F0893066
:1001A00029F4909378002EE630E004C02EE630E08B
:1001B0008A3021F080E003C028E730E081E030930E
:1001C0007400209373009F81911104C09E81981741
:1001D00008F4892F8093610010927500809160006F
:1001E00084FF46C0809161008F3F09F441C0C82F51
:1001F000893008F0C8E08C1B809361008091650015
:1002000098E8892780936500CC2331F12091730011
:10021000309174008091620086FF0BC0F901A6E660
:10022000B0E08C2F8A0F94919D9331968A13FBCF67
:1002300009C0D901E6E6F0E08C2F8E0F9D919193D5
:100240008E13FCCF8C2F815090E00196820F931F6C
:1002500090937400809373006C2F86E690E031D009
:10026000CC5FCC3019F08FEF80936100C0936000B9
:1002700084E190B3947431F48150D9F710927600F0
:1002800010927000DF91CF91089585B7826085BF8D
:100290008BB780648BBF0895A82FB92F80E090E0C2
:1002A00041E050EA609530E009C02D918227979592
:1002B000879510F084279527305EC8F36F5FA8F309
:1002C0000895EADF8D939D930895CF93CFB7CF9391
:1002D000DF93C395869BE9F7869B0BC0869B09C07D
:1002E000869B07C0869B05C0869B03C0869B01C07A
:1002F00089C06F93C0917200DD27C758DF4F2F93DD
:1003000065E5869B03C02F916F91E6CF0F931F93F6
:100310004F9320E040E15F9300B3047406FB27F99C
:100320003F9350E03BE039C0147440642F77012FB5
:100330005F5F1EC0406810B314742F7752501FC007
:10034000406400B32F770474D1F15F5F00C023C015
:10035000406210B32F77147491F15F5F00C025C025
:1003600004741027515012F45D5F0000115027955E
:100370002C3F10B3C8F614740127015027952C3F69
:10038000C8F64227499300B3047410274F731150E5
:1003900027952C3FA8F64695469510B3147479F02E
:1003A0000127015027952C3F98F66B5A60F3315086
:1003B00000B3B0F600C010E41ABF002717C03B50CE
:1003C0003195C31BD04010E41ABF0881033CF9F0FB
:1003D0000B34E9F0209170001981110F1213EDCF49
:1003E000093651F10D3211F0013E39F700937700D3
:1003F0003F915F914F911F910F912F916F91CAB7CC
:10040000C6FD67CFDF91CF91CFBFCF9118952091D7
:100410007700222369F310917500112339F53430E8
:100420003AF13093750020937100109172003BE017
:10043000311B309372001CC0009175000130B4F480
:100440000AE53091600034FD14C000936000C5E6F9
:10045000D0E013C0052710E000C0000002BB1AC0A6
:10046000052710E0221F1DC010E021C04AE502C090
:1004700032ED432FC4E1D0E032E011B31464969A18
:1004800002B311BB54E420E865E320FF052702BB5B
:10049000279517951C3FF0F66695B8F7B1F720FF42
:1004A000052702BB279517951C3FD0F62795179572
:1004B00017FF052700001C3F02BBB0F629913A95B3
:1004C00019F70B7B10917600110FC651D04002BB7B
:1004D00011F01093700010E41ABF006411B31B7B7D
:1004E000402F4B7B54E05A95F1F702BB11BB42BB46
:1004F0007FCFFC0130918F0083E690E090937400F1
:10050000809373002181211107C082818093630051
:1005100083818093640006C0213031F430936300FE
:100520001092640082E00895822F8250823080F41D
:100530004481477081E090E001C0880F4A95EAF756
:10054000223011F4832B02C08095832380938F0087
:1005500098B380918F008F70907F892B88BB80E04B
:1005600008952FE088E190E00FB6F894A89581BD3A
:100570000FBE21BD8FEB87BB80E188BB83ED81BBC4
:1005800080E282BB8BEB81BB8C9894982FEF8AED35
:100590009AE1215080409040E1F700C000008C9A21
:1005A000949A85E083BF71DE7894A89583DD08B6C0
:1005B00001FEFBCF88B7826088BFF7CFF894FFCFEA
:0205C0005AFFE0
:00000001FF
